{
  "contractName": "Paypal",
  "abi": [
    {
      "inputs": [],
      "stateMutability": "nonpayable",
      "type": "constructor"
    },
    {
      "inputs": [],
      "name": "owner",
      "outputs": [
        {
          "internalType": "address",
          "name": "",
          "type": "address"
        }
      ],
      "stateMutability": "view",
      "type": "function",
      "constant": true
    },
    {
      "inputs": [
        {
          "internalType": "string",
          "name": "_name",
          "type": "string"
        }
      ],
      "name": "addName",
      "outputs": [],
      "stateMutability": "nonpayable",
      "type": "function"
    },
    {
      "inputs": [
        {
          "internalType": "address",
          "name": "user",
          "type": "address"
        },
        {
          "internalType": "uint256",
          "name": "_amount",
          "type": "uint256"
        },
        {
          "internalType": "string",
          "name": "_message",
          "type": "string"
        }
      ],
      "name": "createRequest",
      "outputs": [],
      "stateMutability": "nonpayable",
      "type": "function"
    },
    {
      "inputs": [
        {
          "internalType": "uint256",
          "name": "_request",
          "type": "uint256"
        }
      ],
      "name": "payRequest",
      "outputs": [],
      "stateMutability": "payable",
      "type": "function",
      "payable": true
    },
    {
      "inputs": [
        {
          "internalType": "address",
          "name": "_user",
          "type": "address"
        }
      ],
      "name": "getMyRequests",
      "outputs": [
        {
          "internalType": "address[]",
          "name": "",
          "type": "address[]"
        },
        {
          "internalType": "uint256[]",
          "name": "",
          "type": "uint256[]"
        },
        {
          "internalType": "string[]",
          "name": "",
          "type": "string[]"
        },
        {
          "internalType": "string[]",
          "name": "",
          "type": "string[]"
        }
      ],
      "stateMutability": "view",
      "type": "function",
      "constant": true
    },
    {
      "inputs": [
        {
          "internalType": "address",
          "name": "_user",
          "type": "address"
        }
      ],
      "name": "getMyHistory",
      "outputs": [
        {
          "components": [
            {
              "internalType": "string",
              "name": "action",
              "type": "string"
            },
            {
              "internalType": "uint256",
              "name": "amount",
              "type": "uint256"
            },
            {
              "internalType": "string",
              "name": "message",
              "type": "string"
            },
            {
              "internalType": "address",
              "name": "otherPartyAddress",
              "type": "address"
            },
            {
              "internalType": "string",
              "name": "otherPartyName",
              "type": "string"
            }
          ],
          "internalType": "struct Paypal.sendReceive[]",
          "name": "",
          "type": "tuple[]"
        }
      ],
      "stateMutability": "view",
      "type": "function",
      "constant": true
    },
    {
      "inputs": [
        {
          "internalType": "address",
          "name": "_user",
          "type": "address"
        }
      ],
      "name": "getMyName",
      "outputs": [
        {
          "components": [
            {
              "internalType": "string",
              "name": "name",
              "type": "string"
            },
            {
              "internalType": "bool",
              "name": "hasName",
              "type": "bool"
            }
          ],
          "internalType": "struct Paypal.userName",
          "name": "",
          "type": "tuple"
        }
      ],
      "stateMutability": "view",
      "type": "function",
      "constant": true
    }
  ],
  "bytecode": "0x608060405234801561001057600080fd5b50336000806101000a81548173ffffffffffffffffffffffffffffffffffffffff021916908373ffffffffffffffffffffffffffffffffffffffff16021790555061258f806100606000396000f3fe6080604052600436106100705760003560e01c8063370068aa1161004e578063370068aa1461011b57806363d4dd3b146101585780638da5cb5b14610174578063ba9a7a9e1461019f57610070565b806311456b4714610075578063169afbaa1461009e578063347b1b83146100db575b600080fd5b34801561008157600080fd5b5061009c60048036038101906100979190611c6a565b6101c8565b005b3480156100aa57600080fd5b506100c560048036038101906100c09190611bda565b610245565b6040516100d29190612166565b60405180910390f35b3480156100e757600080fd5b5061010260048036038101906100fd9190611bda565b61034b565b60405161011294939291906120a3565b60405180910390f35b34801561012757600080fd5b50610142600480360381019061013d9190611bda565b6109b5565b60405161014f9190612104565b60405180910390f35b610172600480360381019061016d9190611cab565b610c69565b005b34801561018057600080fd5b506101896110fb565b6040516101969190612088565b60405180910390f35b3480156101ab57600080fd5b506101c660048036038101906101c19190611c03565b61111f565b005b6000600160003373ffffffffffffffffffffffffffffffffffffffff1673ffffffffffffffffffffffffffffffffffffffff168152602001908152602001600020905081816000019080519060200190610223929190611939565b5060018160010160006101000a81548160ff0219169083151502179055505050565b61024d6119bf565b600160008373ffffffffffffffffffffffffffffffffffffffff1673ffffffffffffffffffffffffffffffffffffffff1681526020019081526020016000206040518060400160405290816000820180546102a790612412565b80601f01602080910402602001604051908101604052809291908181526020018280546102d390612412565b80156103205780601f106102f557610100808354040283529160200191610320565b820191906000526020600020905b81548152906001019060200180831161030357829003601f168201915b505050505081526020016001820160009054906101000a900460ff1615151515815250509050919050565b6060806060806000600260008773ffffffffffffffffffffffffffffffffffffffff1673ffffffffffffffffffffffffffffffffffffffff1681526020019081526020016000208054905067ffffffffffffffff8111156103d5577f4e487b7100000000000000000000000000000000000000000000000000000000600052604160045260246000fd5b6040519080825280602002602001820160405280156104035781602001602082028036833780820191505090505b5090506000600260008873ffffffffffffffffffffffffffffffffffffffff1673ffffffffffffffffffffffffffffffffffffffff1681526020019081526020016000208054905067ffffffffffffffff81111561048a577f4e487b7100000000000000000000000000000000000000000000000000000000600052604160045260246000fd5b6040519080825280602002602001820160405280156104b85781602001602082028036833780820191505090505b5090506000600260008973ffffffffffffffffffffffffffffffffffffffff1673ffffffffffffffffffffffffffffffffffffffff1681526020019081526020016000208054905067ffffffffffffffff81111561053f577f4e487b7100000000000000000000000000000000000000000000000000000000600052604160045260246000fd5b60405190808252806020026020018201604052801561057257816020015b606081526020019060019003908161055d5790505b5090506000600260008a73ffffffffffffffffffffffffffffffffffffffff1673ffffffffffffffffffffffffffffffffffffffff1681526020019081526020016000208054905067ffffffffffffffff8111156105f9577f4e487b7100000000000000000000000000000000000000000000000000000000600052604160045260246000fd5b60405190808252806020026020018201604052801561062c57816020015b60608152602001906001900390816106175790505b50905060005b600260008b73ffffffffffffffffffffffffffffffffffffffff1673ffffffffffffffffffffffffffffffffffffffff1681526020019081526020016000208054905081101561099d576000600260008c73ffffffffffffffffffffffffffffffffffffffff1673ffffffffffffffffffffffffffffffffffffffff16815260200190815260200160002082815481106106f5577f4e487b7100000000000000000000000000000000000000000000000000000000600052603260045260246000fd5b906000526020600020906004020190508060000160009054906101000a900473ffffffffffffffffffffffffffffffffffffffff16868381518110610763577f4e487b7100000000000000000000000000000000000000000000000000000000600052603260045260246000fd5b602002602001019073ffffffffffffffffffffffffffffffffffffffff16908173ffffffffffffffffffffffffffffffffffffffff168152505080600101548583815181106107db577f4e487b7100000000000000000000000000000000000000000000000000000000600052603260045260246000fd5b6020026020010181815250508060020180546107f690612412565b80601f016020809104026020016040519081016040528092919081815260200182805461082290612412565b801561086f5780601f106108445761010080835404028352916020019161086f565b820191906000526020600020905b81548152906001019060200180831161085257829003601f168201915b50505050508483815181106108ad577f4e487b7100000000000000000000000000000000000000000000000000000000600052603260045260246000fd5b60200260200101819052508060030180546108c790612412565b80601f01602080910402602001604051908101604052809291908181526020018280546108f390612412565b80156109405780601f1061091557610100808354040283529160200191610940565b820191906000526020600020905b81548152906001019060200180831161092357829003601f168201915b505050505083838151811061097e577f4e487b7100000000000000000000000000000000000000000000000000000000600052603260045260246000fd5b602002602001018190525050808061099590612444565b915050610632565b50838383839750975097509750505050509193509193565b6060600360008373ffffffffffffffffffffffffffffffffffffffff1673ffffffffffffffffffffffffffffffffffffffff168152602001908152602001600020805480602002602001604051908101604052809291908181526020016000905b82821015610c5e57838290600052602060002090600502016040518060a0016040529081600082018054610a4990612412565b80601f0160208091040260200160405190810160405280929190818152602001828054610a7590612412565b8015610ac25780601f10610a9757610100808354040283529160200191610ac2565b820191906000526020600020905b815481529060010190602001808311610aa557829003601f168201915b5050505050815260200160018201548152602001600282018054610ae590612412565b80601f0160208091040260200160405190810160405280929190818152602001828054610b1190612412565b8015610b5e5780601f10610b3357610100808354040283529160200191610b5e565b820191906000526020600020905b815481529060010190602001808311610b4157829003601f168201915b505050505081526020016003820160009054906101000a900473ffffffffffffffffffffffffffffffffffffffff1673ffffffffffffffffffffffffffffffffffffffff1673ffffffffffffffffffffffffffffffffffffffff168152602001600482018054610bcd90612412565b80601f0160208091040260200160405190810160405280929190818152602001828054610bf990612412565b8015610c465780601f10610c1b57610100808354040283529160200191610c46565b820191906000526020600020905b815481529060010190602001808311610c2957829003601f168201915b50505050508152505081526020019060010190610a16565b505050509050919050565b600260003373ffffffffffffffffffffffffffffffffffffffff1673ffffffffffffffffffffffffffffffffffffffff168152602001908152602001600020805490508110610ced576040517f08c379a0000000000000000000000000000000000000000000000000000000008152600401610ce490612146565b60405180910390fd5b6000600260003373ffffffffffffffffffffffffffffffffffffffff1673ffffffffffffffffffffffffffffffffffffffff16815260200190815260200160002090506000818381548110610d6b577f4e487b7100000000000000000000000000000000000000000000000000000000600052603260045260246000fd5b906000526020600020906004020190506000670de0b6b3a76400008260010154610d9591906122fa565b9050803414610dd9576040517f08c379a0000000000000000000000000000000000000000000000000000000008152600401610dd090612126565b60405180910390fd5b8160000160009054906101000a900473ffffffffffffffffffffffffffffffffffffffff1673ffffffffffffffffffffffffffffffffffffffff166108fc349081150290604051600060405180830381858888f19350505050158015610e43573d6000803e3d6000fd5b50610f04338360000160009054906101000a900473ffffffffffffffffffffffffffffffffffffffff168460010154856002018054610e8190612412565b80601f0160208091040260200160405190810160405280929190818152602001828054610ead90612412565b8015610efa5780601f10610ecf57610100808354040283529160200191610efa565b820191906000526020600020905b815481529060010190602001808311610edd57829003601f168201915b5050505050611397565b8260018480549050610f169190612354565b81548110610f4d577f4e487b7100000000000000000000000000000000000000000000000000000000600052603260045260246000fd5b9060005260206000209060040201838581548110610f94577f4e487b7100000000000000000000000000000000000000000000000000000000600052603260045260246000fd5b90600052602060002090600402016000820160009054906101000a900473ffffffffffffffffffffffffffffffffffffffff168160000160006101000a81548173ffffffffffffffffffffffffffffffffffffffff021916908373ffffffffffffffffffffffffffffffffffffffff16021790555060018201548160010155600282018160020190805461102790612412565b6110329291906119db565b50600382018160030190805461104790612412565b6110529291906119db565b509050508280548061108d577f4e487b7100000000000000000000000000000000000000000000000000000000600052603160045260246000fd5b6001900381819060005260206000209060040201600080820160006101000a81549073ffffffffffffffffffffffffffffffffffffffff021916905560018201600090556002820160006110e19190611a68565b6003820160006110f19190611a68565b5050905550505050565b60008054906101000a900473ffffffffffffffffffffffffffffffffffffffff1681565b611127611aa8565b33816000019073ffffffffffffffffffffffffffffffffffffffff16908173ffffffffffffffffffffffffffffffffffffffff168152505082816020018181525050818160400181905250600160003373ffffffffffffffffffffffffffffffffffffffff1673ffffffffffffffffffffffffffffffffffffffff16815260200190815260200160002060010160009054906101000a900460ff161561129b57600160003373ffffffffffffffffffffffffffffffffffffffff1673ffffffffffffffffffffffffffffffffffffffff168152602001908152602001600020600001805461121490612412565b80601f016020809104026020016040519081016040528092919081815260200182805461124090612412565b801561128d5780601f106112625761010080835404028352916020019161128d565b820191906000526020600020905b81548152906001019060200180831161127057829003601f168201915b505050505081606001819052505b600260008573ffffffffffffffffffffffffffffffffffffffff1673ffffffffffffffffffffffffffffffffffffffff16815260200190815260200160002081908060018154018082558091505060019003906000526020600020906004020160009091909190915060008201518160000160006101000a81548173ffffffffffffffffffffffffffffffffffffffff021916908373ffffffffffffffffffffffffffffffffffffffff160217905550602082015181600101556040820151816002019080519060200190611371929190611939565b50606082015181600301908051906020019061138e929190611939565b50505050505050565b61139f611ae6565b6040518060400160405280600481526020017f53656e640000000000000000000000000000000000000000000000000000000081525081600001819052508281602001818152505081816040018190525083816060019073ffffffffffffffffffffffffffffffffffffffff16908173ffffffffffffffffffffffffffffffffffffffff1681525050600160008573ffffffffffffffffffffffffffffffffffffffff1673ffffffffffffffffffffffffffffffffffffffff16815260200190815260200160002060010160009054906101000a900460ff161561155157600160008573ffffffffffffffffffffffffffffffffffffffff1673ffffffffffffffffffffffffffffffffffffffff16815260200190815260200160002060000180546114ca90612412565b80601f01602080910402602001604051908101604052809291908181526020018280546114f690612412565b80156115435780601f1061151857610100808354040283529160200191611543565b820191906000526020600020905b81548152906001019060200180831161152657829003601f168201915b505050505081608001819052505b600360008673ffffffffffffffffffffffffffffffffffffffff1673ffffffffffffffffffffffffffffffffffffffff16815260200190815260200160002081908060018154018082558091505060019003906000526020600020906005020160009091909190915060008201518160000190805190602001906115d6929190611939565b506020820151816001015560408201518160020190805190602001906115fd929190611939565b5060608201518160030160006101000a81548173ffffffffffffffffffffffffffffffffffffffff021916908373ffffffffffffffffffffffffffffffffffffffff1602179055506080820151816004019080519060200190611661929190611939565b50505061166c611ae6565b6040518060400160405280600781526020017f526563656976650000000000000000000000000000000000000000000000000081525081600001819052508381602001818152505082816040018190525085816060019073ffffffffffffffffffffffffffffffffffffffff16908173ffffffffffffffffffffffffffffffffffffffff1681525050600160008773ffffffffffffffffffffffffffffffffffffffff1673ffffffffffffffffffffffffffffffffffffffff16815260200190815260200160002060010160009054906101000a900460ff161561181e57600160008773ffffffffffffffffffffffffffffffffffffffff1673ffffffffffffffffffffffffffffffffffffffff168152602001908152602001600020600001805461179790612412565b80601f01602080910402602001604051908101604052809291908181526020018280546117c390612412565b80156118105780601f106117e557610100808354040283529160200191611810565b820191906000526020600020905b8154815290600101906020018083116117f357829003601f168201915b505050505081608001819052505b600360008673ffffffffffffffffffffffffffffffffffffffff1673ffffffffffffffffffffffffffffffffffffffff16815260200190815260200160002081908060018154018082558091505060019003906000526020600020906005020160009091909190915060008201518160000190805190602001906118a3929190611939565b506020820151816001015560408201518160020190805190602001906118ca929190611939565b5060608201518160030160006101000a81548173ffffffffffffffffffffffffffffffffffffffff021916908373ffffffffffffffffffffffffffffffffffffffff160217905550608082015181600401908051906020019061192e929190611939565b505050505050505050565b82805461194590612412565b90600052602060002090601f01602090048101928261196757600085556119ae565b82601f1061198057805160ff19168380011785556119ae565b828001600101855582156119ae579182015b828111156119ad578251825591602001919060010190611992565b5b5090506119bb9190611b2b565b5090565b6040518060400160405280606081526020016000151581525090565b8280546119e790612412565b90600052602060002090601f016020900481019282611a095760008555611a57565b82601f10611a1a5780548555611a57565b82800160010185558215611a5757600052602060002091601f016020900482015b82811115611a56578254825591600101919060010190611a3b565b5b509050611a649190611b2b565b5090565b508054611a7490612412565b6000825580601f10611a865750611aa5565b601f016020900490600052602060002090810190611aa49190611b2b565b5b50565b6040518060800160405280600073ffffffffffffffffffffffffffffffffffffffff1681526020016000815260200160608152602001606081525090565b6040518060a00160405280606081526020016000815260200160608152602001600073ffffffffffffffffffffffffffffffffffffffff168152602001606081525090565b5b80821115611b44576000816000905550600101611b2c565b5090565b6000611b5b611b56846121b9565b612188565b905082815260208101848484011115611b7357600080fd5b611b7e8482856123d0565b509392505050565b600081359050611b958161252b565b92915050565b600082601f830112611bac57600080fd5b8135611bbc848260208601611b48565b91505092915050565b600081359050611bd481612542565b92915050565b600060208284031215611bec57600080fd5b6000611bfa84828501611b86565b91505092915050565b600080600060608486031215611c1857600080fd5b6000611c2686828701611b86565b9350506020611c3786828701611bc5565b925050604084013567ffffffffffffffff811115611c5457600080fd5b611c6086828701611b9b565b9150509250925092565b600060208284031215611c7c57600080fd5b600082013567ffffffffffffffff811115611c9657600080fd5b611ca284828501611b9b565b91505092915050565b600060208284031215611cbd57600080fd5b6000611ccb84828501611bc5565b91505092915050565b6000611ce08383611d2c565b60208301905092915050565b6000611cf88383611eff565b905092915050565b6000611d0c8383611fb8565b905092915050565b6000611d208383612079565b60208301905092915050565b611d3581612388565b82525050565b611d4481612388565b82525050565b6000611d5582612229565b611d5f8185612294565b9350611d6a836121e9565b8060005b83811015611d9b578151611d828882611cd4565b9750611d8d83612260565b925050600181019050611d6e565b5085935050505092915050565b6000611db382612234565b611dbd81856122a5565b935083602082028501611dcf856121f9565b8060005b85811015611e0b5784840389528151611dec8582611cec565b9450611df78361226d565b925060208a01995050600181019050611dd3565b50829750879550505050505092915050565b6000611e288261223f565b611e3281856122b6565b935083602082028501611e4485612209565b8060005b85811015611e805784840389528151611e618582611d00565b9450611e6c8361227a565b925060208a01995050600181019050611e48565b50829750879550505050505092915050565b6000611e9d8261224a565b611ea781856122c7565b9350611eb283612219565b8060005b83811015611ee3578151611eca8882611d14565b9750611ed583612287565b925050600181019050611eb6565b5085935050505092915050565b611ef98161239a565b82525050565b6000611f0a82612255565b611f1481856122d8565b9350611f248185602086016123df565b611f2d8161251a565b840191505092915050565b6000611f456012836122e9565b91507f50617920436f727265637420416d6f756e7400000000000000000000000000006000830152602082019050919050565b6000611f85600f836122e9565b91507f4e6f2053756368205265717565737400000000000000000000000000000000006000830152602082019050919050565b600060a0830160008301518482036000860152611fd58282611eff565b9150506020830151611fea6020860182612079565b50604083015184820360408601526120028282611eff565b91505060608301516120176060860182611d2c565b506080830151848203608086015261202f8282611eff565b9150508091505092915050565b600060408301600083015184820360008601526120598282611eff565b915050602083015161206e6020860182611ef0565b508091505092915050565b612082816123c6565b82525050565b600060208201905061209d6000830184611d3b565b92915050565b600060808201905081810360008301526120bd8187611d4a565b905081810360208301526120d18186611e92565b905081810360408301526120e58185611da8565b905081810360608301526120f98184611da8565b905095945050505050565b6000602082019050818103600083015261211e8184611e1d565b905092915050565b6000602082019050818103600083015261213f81611f38565b9050919050565b6000602082019050818103600083015261215f81611f78565b9050919050565b60006020820190508181036000830152612180818461203c565b905092915050565b6000604051905081810181811067ffffffffffffffff821117156121af576121ae6124eb565b5b8060405250919050565b600067ffffffffffffffff8211156121d4576121d36124eb565b5b601f19601f8301169050602081019050919050565b6000819050602082019050919050565b6000819050602082019050919050565b6000819050602082019050919050565b6000819050602082019050919050565b600081519050919050565b600081519050919050565b600081519050919050565b600081519050919050565b600081519050919050565b6000602082019050919050565b6000602082019050919050565b6000602082019050919050565b6000602082019050919050565b600082825260208201905092915050565b600082825260208201905092915050565b600082825260208201905092915050565b600082825260208201905092915050565b600082825260208201905092915050565b600082825260208201905092915050565b6000612305826123c6565b9150612310836123c6565b9250817fffffffffffffffffffffffffffffffffffffffffffffffffffffffffffffffff04831182151516156123495761234861248d565b5b828202905092915050565b600061235f826123c6565b915061236a836123c6565b92508282101561237d5761237c61248d565b5b828203905092915050565b6000612393826123a6565b9050919050565b60008115159050919050565b600073ffffffffffffffffffffffffffffffffffffffff82169050919050565b6000819050919050565b82818337600083830152505050565b60005b838110156123fd5780820151818401526020810190506123e2565b8381111561240c576000848401525b50505050565b6000600282049050600182168061242a57607f821691505b6020821081141561243e5761243d6124bc565b5b50919050565b600061244f826123c6565b91507fffffffffffffffffffffffffffffffffffffffffffffffffffffffffffffffff8214156124825761248161248d565b5b600182019050919050565b7f4e487b7100000000000000000000000000000000000000000000000000000000600052601160045260246000fd5b7f4e487b7100000000000000000000000000000000000000000000000000000000600052602260045260246000fd5b7f4e487b7100000000000000000000000000000000000000000000000000000000600052604160045260246000fd5b6000601f19601f8301169050919050565b61253481612388565b811461253f57600080fd5b50565b61254b816123c6565b811461255657600080fd5b5056fea264697066735822122077f354b82dcf7e562c4d9bf7db2c38fda52bb4120ce17c9958feb666efea0d5564736f6c63430008000033",
  "immutableReferences": {},
  "source": "// SPDX-License-Identifier: MIT\r\npragma solidity ^0.8.0;\r\n\r\ncontract Paypal{\r\n\r\n//Define the Owner of the smart contract \r\n\r\naddress public owner;\r\n\r\n\r\nconstructor(){\r\n        owner = msg.sender;\r\n}\r\n\r\n\r\n//Create Struct and Mappping for request, transaction & name\r\n\r\n\r\nstruct request {\r\n        address requestor;\r\n        uint256 amount;\r\n        string message;\r\n        string name;\r\n}\r\n\r\nstruct sendReceive {\r\n        string action;\r\n        uint256 amount;\r\n        string message;\r\n        address otherPartyAddress;\r\n        string otherPartyName;\r\n}\r\n\r\nstruct userName {\r\n        string name;\r\n        bool hasName;\r\n}\r\n\r\nmapping(address => userName) names;\r\nmapping(address  => request[]) requests;\r\nmapping(address  => sendReceive[]) history;\r\n\r\n\r\n//Add a name to wallet address\r\n\r\nfunction addName(string memory _name) public {\r\n    \r\n    userName storage newUserName = names[msg.sender];\r\n    newUserName.name = _name;\r\n    newUserName.hasName = true;\r\n\r\n}\r\n\r\n\r\n//Create a Request\r\n\r\nfunction createRequest(address user, uint256 _amount, string memory _message) public {\r\n        \r\n    request memory newRequest;\r\n    newRequest.requestor = msg.sender;\r\n    newRequest.amount = _amount;\r\n    newRequest.message = _message;\r\n    if(names[msg.sender].hasName){\r\n        newRequest.name = names[msg.sender].name;\r\n    }\r\n    requests[user].push(newRequest);\r\n\r\n}\r\n\r\n\r\n//Pay a Request\r\n\r\nfunction payRequest(uint256 _request) public payable {\r\n    \r\n    require(_request < requests[msg.sender].length, \"No Such Request\");\r\n    request[] storage myRequests = requests[msg.sender];\r\n    request storage payableRequest = myRequests[_request];\r\n        \r\n    uint256 toPay = payableRequest.amount * 1000000000000000000;\r\n    require(msg.value == (toPay), \"Pay Correct Amount\");\r\n\r\n    payable(payableRequest.requestor).transfer(msg.value);\r\n\r\n    addHistory(msg.sender, payableRequest.requestor, payableRequest.amount, payableRequest.message);\r\n\r\n    myRequests[_request] = myRequests[myRequests.length-1];\r\n    myRequests.pop();\r\n\r\n}\r\n\r\nfunction addHistory(address sender, address receiver, uint256 _amount, string memory _message) private {\r\n        \r\n    sendReceive memory newSend;\r\n    newSend.action = \"Send\";\r\n    newSend.amount = _amount;\r\n    newSend.message = _message;\r\n    newSend.otherPartyAddress = receiver;\r\n    if(names[receiver].hasName){\r\n        newSend.otherPartyName = names[receiver].name;\r\n    }\r\n    history[sender].push(newSend);\r\n\r\n    sendReceive memory newReceive;\r\n    newReceive.action = \"Receive\";\r\n    newReceive.amount = _amount;\r\n    newReceive.message = _message;\r\n    newReceive.otherPartyAddress = sender;\r\n    if(names[sender].hasName){\r\n        newReceive.otherPartyName = names[sender].name;\r\n    }\r\n    history[receiver].push(newReceive);\r\n}\r\n\r\n\r\n//Get all requests sent to a User\r\n\r\nfunction getMyRequests(address _user) public view returns(\r\n         address[] memory, \r\n         uint256[] memory, \r\n         string[] memory, \r\n         string[] memory\r\n){\r\n\r\n        address[] memory addrs = new address[](requests[_user].length);\r\n        uint256[] memory amnt = new uint256[](requests[_user].length);\r\n        string[] memory msge = new string[](requests[_user].length);\r\n        string[] memory nme = new string[](requests[_user].length);\r\n        \r\n        for (uint i = 0; i < requests[_user].length; i++) {\r\n            request storage myRequests = requests[_user][i];\r\n            addrs[i] = myRequests.requestor;\r\n            amnt[i] = myRequests.amount;\r\n            msge[i] = myRequests.message;\r\n            nme[i] = myRequests.name;\r\n        }\r\n        \r\n        return (addrs, amnt, msge, nme);        \r\n         \r\n\r\n}\r\n\r\n\r\n//Get all historic transactions user has been apart of\r\n\r\n\r\nfunction getMyHistory(address _user) public view returns(sendReceive[] memory){\r\n        return history[_user];\r\n}\r\n\r\nfunction getMyName(address _user) public view returns(userName memory){\r\n        return names[_user];\r\n}\r\n\r\n}",
  "sourcePath": "C:\\Users\\marti\\Documents\\projects\\web3paypal\\contracts\\Paypal.sol",
  "compiler": {
    "name": "solc",
    "version": "0.8.0+commit.c7dfd78e.Emscripten.clang"
  },
  "schemaVersion": "3.4.16",
  "updatedAt": "2024-01-21T16:33:08.158Z",
  "networkType": "ethereum",
  "devdoc": {
    "kind": "dev",
    "methods": {},
    "version": 1
  },
  "userdoc": {
    "kind": "user",
    "methods": {},
    "version": 1
  }
}